{"contracts/RiddleContract.sol":{"RiddleContract":{"abi":[{"inputs":[{"internalType":"string","name":"_riddle","type":"string"},{"internalType":"string","name":"_secretWord","type":"string"}],"stateMutability":"nonpayable","type":"constructor"},{"anonymous":false,"inputs":[{"indexed":true,"internalType":"address","name":"solver","type":"address"},{"indexed":false,"internalType":"string","name":"solution","type":"string"}],"name":"RiddleSolved","type":"event"},{"inputs":[],"name":"getSecretWord","outputs":[{"internalType":"string","name":"","type":"string"}],"stateMutability":"view","type":"function"},{"inputs":[],"name":"isSolved","outputs":[{"internalType":"bool","name":"","type":"bool"}],"stateMutability":"view","type":"function"},{"inputs":[],"name":"riddle","outputs":[{"internalType":"string","name":"","type":"string"}],"stateMutability":"view","type":"function"},{"inputs":[{"internalType":"string","name":"_attempt","type":"string"}],"name":"solveRiddle","outputs":[],"stateMutability":"nonpayable","type":"function"}],"evm":{"bytecode":{"linkReferences":{},"object":"60806040523480156200001157600080fd5b50604051620019e9380380620019e98339818101604052810190620000379190620005a5565b816000908162000048919062000875565b506200005a81620000ab60201b60201c565b6040516020016200006c91906200099e565b604051602081830303815290604052805190602001206001819055506000600260006101000a81548160ff021916908315150217905550505062000acb565b60606000829050600080825190505b8082108015620001b15750602060f81b838381518110620000e057620000df620009b7565b5b602001015160f81c60f81b7effffffffffffffffffffffffffffffffffffffffffffffffffffffffffffff191614806200015f5750600a60f81b83838151811062000130576200012f620009b7565b5b602001015160f81c60f81b7effffffffffffffffffffffffffffffffffffffffffffffffffffffffffffff1916145b80620001b05750600d60f81b838381518110620001815762000180620009b7565b5b602001015160f81c60f81b7effffffffffffffffffffffffffffffffffffffffffffffffffffffffffffff1916145b5b15620001cd578180620001c49062000a15565b925050620000ba565b5b8181118015620002ef5750602060f81b83600183620001ee919062000a62565b81518110620002025762000201620009b7565b5b602001015160f81c60f81b7effffffffffffffffffffffffffffffffffffffffffffffffffffffffffffff191614806200028f5750600a60f81b836001836200024c919062000a62565b8151811062000260576200025f620009b7565b5b602001015160f81c60f81b7effffffffffffffffffffffffffffffffffffffffffffffffffffffffffffff1916145b80620002ee5750600d60f81b83600183620002ab919062000a62565b81518110620002bf57620002be620009b7565b5b602001015160f81c60f81b7effffffffffffffffffffffffffffffffffffffffffffffffffffffffffffff1916145b5b156200030b578080620003029062000a9d565b915050620001ce565b600082826200031b919062000a62565b67ffffffffffffffff81111562000337576200033662000441565b5b6040519080825280601f01601f1916602001820160405280156200036a5781602001600182028036833780820191505090505b50905060008390505b828110156200040557848181518110620003925762000391620009b7565b5b602001015160f81c60f81b828583620003ac919062000a62565b81518110620003c057620003bf620009b7565b5b60200101907effffffffffffffffffffffffffffffffffffffffffffffffffffffffffffff1916908160001a9053508080620003fc9062000a15565b91505062000373565b5080945050505050919050565b6000604051905090565b600080fd5b600080fd5b600080fd5b600080fd5b6000601f19601f8301169050919050565b7f4e487b7100000000000000000000000000000000000000000000000000000000600052604160045260246000fd5b6200047b8262000430565b810181811067ffffffffffffffff821117156200049d576200049c62000441565b5b80604052505050565b6000620004b262000412565b9050620004c0828262000470565b919050565b600067ffffffffffffffff821115620004e357620004e262000441565b5b620004ee8262000430565b9050602081019050919050565b60005b838110156200051b578082015181840152602081019050620004fe565b60008484015250505050565b60006200053e6200053884620004c5565b620004a6565b9050828152602081018484840111156200055d576200055c6200042b565b5b6200056a848285620004fb565b509392505050565b600082601f8301126200058a576200058962000426565b5b81516200059c84826020860162000527565b91505092915050565b60008060408385031215620005bf57620005be6200041c565b5b600083015167ffffffffffffffff811115620005e057620005df62000421565b5b620005ee8582860162000572565b925050602083015167ffffffffffffffff81111562000612576200061162000421565b5b620006208582860162000572565b9150509250929050565b600081519050919050565b7f4e487b7100000000000000000000000000000000000000000000000000000000600052602260045260246000fd5b600060028204905060018216806200067d57607f821691505b60208210810362000693576200069262000635565b5b50919050565b60008190508160005260206000209050919050565b60006020601f8301049050919050565b600082821b905092915050565b600060088302620006fd7fffffffffffffffffffffffffffffffffffffffffffffffffffffffffffffffff82620006be565b620007098683620006be565b95508019841693508086168417925050509392505050565b6000819050919050565b6000819050919050565b600062000756620007506200074a8462000721565b6200072b565b62000721565b9050919050565b6000819050919050565b620007728362000735565b6200078a62000781826200075d565b848454620006cb565b825550505050565b600090565b620007a162000792565b620007ae81848462000767565b505050565b5b81811015620007d657620007ca60008262000797565b600181019050620007b4565b5050565b601f8211156200082557620007ef8162000699565b620007fa84620006ae565b810160208510156200080a578190505b620008226200081985620006ae565b830182620007b3565b50505b505050565b600082821c905092915050565b60006200084a600019846008026200082a565b1980831691505092915050565b600062000865838362000837565b9150826002028217905092915050565b62000880826200062a565b67ffffffffffffffff8111156200089c576200089b62000441565b5b620008a8825462000664565b620008b5828285620007da565b600060209050601f831160018114620008ed5760008415620008d8578287015190505b620008e4858262000857565b86555062000954565b601f198416620008fd8662000699565b60005b82811015620009275784890151825560018201915060208501945060208101905062000900565b8683101562000947578489015162000943601f89168262000837565b8355505b6001600288020188555050505b505050505050565b600081905092915050565b600062000974826200062a565b6200098081856200095c565b935062000992818560208601620004fb565b80840191505092915050565b6000620009ac828462000967565b915081905092915050565b7f4e487b7100000000000000000000000000000000000000000000000000000000600052603260045260246000fd5b7f4e487b7100000000000000000000000000000000000000000000000000000000600052601160045260246000fd5b600062000a228262000721565b91507fffffffffffffffffffffffffffffffffffffffffffffffffffffffffffffffff820362000a575762000a56620009e6565b5b600182019050919050565b600062000a6f8262000721565b915062000a7c8362000721565b925082820390508181111562000a975762000a96620009e6565b5b92915050565b600062000aaa8262000721565b91506000820362000ac05762000abf620009e6565b5b600182039050919050565b610f0e8062000adb6000396000f3fe608060405234801561001057600080fd5b506004361061004c5760003560e01c8063147ec12d1461005157806356049a861461006f57806364d98f6e1461008d5780636ed9ab7a146100ab575b600080fd5b6100596100c7565b6040516100669190610746565b60405180910390f35b6100776101a8565b6040516100849190610746565b60405180910390f35b610095610236565b6040516100a29190610783565b60405180910390f35b6100c560048036038101906100c091906108e7565b610249565b005b6060600260009054906101000a900460ff16610118576040517f08c379a000000000000000000000000000000000000000000000000000000000815260040161010f906109a2565b60405180910390fd5b60038054610125906109f1565b80601f0160208091040260200160405190810160405280929190818152602001828054610151906109f1565b801561019e5780601f106101735761010080835404028352916020019161019e565b820191906000526020600020905b81548152906001019060200180831161018157829003601f168201915b5050505050905090565b600080546101b5906109f1565b80601f01602080910402602001604051908101604052809291908181526020018280546101e1906109f1565b801561022e5780601f106102035761010080835404028352916020019161022e565b820191906000526020600020905b81548152906001019060200180831161021157829003601f168201915b505050505081565b600260009054906101000a900460ff1681565b600260009054906101000a900460ff1615610299576040517f08c379a000000000000000000000000000000000000000000000000000000000815260040161029090610a6e565b60405180910390fd5b6001546102a582610387565b6040516020016102b59190610aca565b604051602081830303815290604052805190602001201461030b576040517f08c379a000000000000000000000000000000000000000000000000000000000815260040161030290610b2d565b60405180910390fd5b806003908161031a9190610d03565b506001600260006101000a81548160ff0219169083151502179055503373ffffffffffffffffffffffffffffffffffffffff167f1c94acbb9dba8c0a3350953b11c8dcfac05259d7885ff4ab24d5ccc1cd7d141e8260405161037c9190610746565b60405180910390a250565b60606000829050600080825190505b80821080156104815750602060f81b8383815181106103b8576103b7610dd5565b5b602001015160f81c60f81b7effffffffffffffffffffffffffffffffffffffffffffffffffffffffffffff191614806104335750600a60f81b83838151811061040457610403610dd5565b5b602001015160f81c60f81b7effffffffffffffffffffffffffffffffffffffffffffffffffffffffffffff1916145b806104805750600d60f81b83838151811061045157610450610dd5565b5b602001015160f81c60f81b7effffffffffffffffffffffffffffffffffffffffffffffffffffffffffffff1916145b5b1561049957818061049190610e33565b925050610396565b5b81811180156105a95750602060f81b836001836104b79190610e7b565b815181106104c8576104c7610dd5565b5b602001015160f81c60f81b7effffffffffffffffffffffffffffffffffffffffffffffffffffffffffffff1916148061054f5750600a60f81b8360018361050f9190610e7b565b815181106105205761051f610dd5565b5b602001015160f81c60f81b7effffffffffffffffffffffffffffffffffffffffffffffffffffffffffffff1916145b806105a85750600d60f81b836001836105689190610e7b565b8151811061057957610578610dd5565b5b602001015160f81c60f81b7effffffffffffffffffffffffffffffffffffffffffffffffffffffffffffff1916145b5b156105c15780806105b990610eaf565b91505061049a565b600082826105cf9190610e7b565b67ffffffffffffffff8111156105e8576105e76107bc565b5b6040519080825280601f01601f19166020018201604052801561061a5781602001600182028036833780820191505090505b50905060008390505b828110156106a95784818151811061063e5761063d610dd5565b5b602001015160f81c60f81b8285836106569190610e7b565b8151811061066757610666610dd5565b5b60200101907effffffffffffffffffffffffffffffffffffffffffffffffffffffffffffff1916908160001a90535080806106a190610e33565b915050610623565b5080945050505050919050565b600081519050919050565b600082825260208201905092915050565b60005b838110156106f05780820151818401526020810190506106d5565b60008484015250505050565b6000601f19601f8301169050919050565b6000610718826106b6565b61072281856106c1565b93506107328185602086016106d2565b61073b816106fc565b840191505092915050565b60006020820190508181036000830152610760818461070d565b905092915050565b60008115159050919050565b61077d81610768565b82525050565b60006020820190506107986000830184610774565b92915050565b6000604051905090565b600080fd5b600080fd5b600080fd5b600080fd5b7f4e487b7100000000000000000000000000000000000000000000000000000000600052604160045260246000fd5b6107f4826106fc565b810181811067ffffffffffffffff82111715610813576108126107bc565b5b80604052505050565b600061082661079e565b905061083282826107eb565b919050565b600067ffffffffffffffff821115610852576108516107bc565b5b61085b826106fc565b9050602081019050919050565b82818337600083830152505050565b600061088a61088584610837565b61081c565b9050828152602081018484840111156108a6576108a56107b7565b5b6108b1848285610868565b509392505050565b600082601f8301126108ce576108cd6107b2565b5b81356108de848260208601610877565b91505092915050565b6000602082840312156108fd576108fc6107a8565b5b600082013567ffffffffffffffff81111561091b5761091a6107ad565b5b610927848285016108b9565b91505092915050565b7f41756e206e6f2073652068612072657375656c746f20656c206163657274696a60008201527f6f2e000000000000000000000000000000000000000000000000000000000000602082015250565b600061098c6022836106c1565b915061099782610930565b604082019050919050565b600060208201905081810360008301526109bb8161097f565b9050919050565b7f4e487b7100000000000000000000000000000000000000000000000000000000600052602260045260246000fd5b60006002820490506001821680610a0957607f821691505b602082108103610a1c57610a1b6109c2565b5b50919050565b7f456c206163657274696a6f207961206861207369646f2072657375656c746f2e600082015250565b6000610a586020836106c1565b9150610a6382610a22565b602082019050919050565b60006020820190508181036000830152610a8781610a4b565b9050919050565b600081905092915050565b6000610aa4826106b6565b610aae8185610a8e565b9350610abe8185602086016106d2565b80840191505092915050565b6000610ad68284610a99565b915081905092915050565b7f52657370756573746120696e636f7272656374612e0000000000000000000000600082015250565b6000610b176015836106c1565b9150610b2282610ae1565b602082019050919050565b60006020820190508181036000830152610b4681610b0a565b9050919050565b60008190508160005260206000209050919050565b60006020601f8301049050919050565b600082821b905092915050565b600060088302610baf7fffffffffffffffffffffffffffffffffffffffffffffffffffffffffffffffff82610b72565b610bb98683610b72565b95508019841693508086168417925050509392505050565b6000819050919050565b6000819050919050565b6000610c00610bfb610bf684610bd1565b610bdb565b610bd1565b9050919050565b6000819050919050565b610c1a83610be5565b610c2e610c2682610c07565b848454610b7f565b825550505050565b600090565b610c43610c36565b610c4e818484610c11565b505050565b5b81811015610c7257610c67600082610c3b565b600181019050610c54565b5050565b601f821115610cb757610c8881610b4d565b610c9184610b62565b81016020851015610ca0578190505b610cb4610cac85610b62565b830182610c53565b50505b505050565b600082821c905092915050565b6000610cda60001984600802610cbc565b1980831691505092915050565b6000610cf38383610cc9565b9150826002028217905092915050565b610d0c826106b6565b67ffffffffffffffff811115610d2557610d246107bc565b5b610d2f82546109f1565b610d3a828285610c76565b600060209050601f831160018114610d6d5760008415610d5b578287015190505b610d658582610ce7565b865550610dcd565b601f198416610d7b86610b4d565b60005b82811015610da357848901518255600182019150602085019450602081019050610d7e565b86831015610dc05784890151610dbc601f891682610cc9565b8355505b6001600288020188555050505b505050505050565b7f4e487b7100000000000000000000000000000000000000000000000000000000600052603260045260246000fd5b7f4e487b7100000000000000000000000000000000000000000000000000000000600052601160045260246000fd5b6000610e3e82610bd1565b91507fffffffffffffffffffffffffffffffffffffffffffffffffffffffffffffffff8203610e7057610e6f610e04565b5b600182019050919050565b6000610e8682610bd1565b9150610e9183610bd1565b9250828203905081811115610ea957610ea8610e04565b5b92915050565b6000610eba82610bd1565b915060008203610ecd57610ecc610e04565b5b60018203905091905056fea2646970667358221220f8d0fd2d683eee7b33ead368097533616b43af9ded88b51f4207bc38ed72d6c464736f6c63430008110033","opcodes":"PUSH1 0x80 PUSH1 0x40 MSTORE CALLVALUE DUP1 ISZERO PUSH3 0x11 JUMPI PUSH1 0x0 DUP1 REVERT JUMPDEST POP PUSH1 0x40 MLOAD PUSH3 0x19E9 CODESIZE SUB DUP1 PUSH3 0x19E9 DUP4 CODECOPY DUP2 DUP2 ADD PUSH1 0x40 MSTORE DUP2 ADD SWAP1 PUSH3 0x37 SWAP2 SWAP1 PUSH3 0x5A5 JUMP JUMPDEST DUP2 PUSH1 0x0 SWAP1 DUP2 PUSH3 0x48 SWAP2 SWAP1 PUSH3 0x875 JUMP JUMPDEST POP PUSH3 0x5A DUP2 PUSH3 0xAB PUSH1 0x20 SHL PUSH1 0x20 SHR JUMP JUMPDEST PUSH1 0x40 MLOAD PUSH1 0x20 ADD PUSH3 0x6C SWAP2 SWAP1 PUSH3 0x99E JUMP JUMPDEST PUSH1 0x40 MLOAD PUSH1 0x20 DUP2 DUP4 SUB SUB DUP2 MSTORE SWAP1 PUSH1 0x40 MSTORE DUP1 MLOAD SWAP1 PUSH1 0x20 ADD KECCAK256 PUSH1 0x1 DUP2 SWAP1 SSTORE POP PUSH1 0x0 PUSH1 0x2 PUSH1 0x0 PUSH2 0x100 EXP DUP2 SLOAD DUP2 PUSH1 0xFF MUL NOT AND SWAP1 DUP4 ISZERO ISZERO MUL OR SWAP1 SSTORE POP POP POP PUSH3 0xACB JUMP JUMPDEST PUSH1 0x60 PUSH1 0x0 DUP3 SWAP1 POP PUSH1 0x0 DUP1 DUP3 MLOAD SWAP1 POP JUMPDEST DUP1 DUP3 LT DUP1 ISZERO PUSH3 0x1B1 JUMPI POP PUSH1 0x20 PUSH1 0xF8 SHL DUP4 DUP4 DUP2 MLOAD DUP2 LT PUSH3 0xE0 JUMPI PUSH3 0xDF PUSH3 0x9B7 JUMP JUMPDEST JUMPDEST PUSH1 0x20 ADD ADD MLOAD PUSH1 0xF8 SHR PUSH1 0xF8 SHL PUSH31 0xFFFFFFFFFFFFFFFFFFFFFFFFFFFFFFFFFFFFFFFFFFFFFFFFFFFFFFFFFFFFFF NOT AND EQ DUP1 PUSH3 0x15F JUMPI POP PUSH1 0xA PUSH1 0xF8 SHL DUP4 DUP4 DUP2 MLOAD DUP2 LT PUSH3 0x130 JUMPI PUSH3 0x12F PUSH3 0x9B7 JUMP JUMPDEST JUMPDEST PUSH1 0x20 ADD ADD MLOAD PUSH1 0xF8 SHR PUSH1 0xF8 SHL PUSH31 0xFFFFFFFFFFFFFFFFFFFFFFFFFFFFFFFFFFFFFFFFFFFFFFFFFFFFFFFFFFFFFF NOT AND EQ JUMPDEST DUP1 PUSH3 0x1B0 JUMPI POP PUSH1 0xD PUSH1 0xF8 SHL DUP4 DUP4 DUP2 MLOAD DUP2 LT PUSH3 0x181 JUMPI PUSH3 0x180 PUSH3 0x9B7 JUMP JUMPDEST JUMPDEST PUSH1 0x20 ADD ADD MLOAD PUSH1 0xF8 SHR PUSH1 0xF8 SHL PUSH31 0xFFFFFFFFFFFFFFFFFFFFFFFFFFFFFFFFFFFFFFFFFFFFFFFFFFFFFFFFFFFFFF NOT AND EQ JUMPDEST JUMPDEST ISZERO PUSH3 0x1CD JUMPI DUP2 DUP1 PUSH3 0x1C4 SWAP1 PUSH3 0xA15 JUMP JUMPDEST SWAP3 POP POP PUSH3 0xBA JUMP JUMPDEST JUMPDEST DUP2 DUP2 GT DUP1 ISZERO PUSH3 0x2EF JUMPI POP PUSH1 0x20 PUSH1 0xF8 SHL DUP4 PUSH1 0x1 DUP4 PUSH3 0x1EE SWAP2 SWAP1 PUSH3 0xA62 JUMP JUMPDEST DUP2 MLOAD DUP2 LT PUSH3 0x202 JUMPI PUSH3 0x201 PUSH3 0x9B7 JUMP JUMPDEST JUMPDEST PUSH1 0x20 ADD ADD MLOAD PUSH1 0xF8 SHR PUSH1 0xF8 SHL PUSH31 0xFFFFFFFFFFFFFFFFFFFFFFFFFFFFFFFFFFFFFFFFFFFFFFFFFFFFFFFFFFFFFF NOT AND EQ DUP1 PUSH3 0x28F JUMPI POP PUSH1 0xA PUSH1 0xF8 SHL DUP4 PUSH1 0x1 DUP4 PUSH3 0x24C SWAP2 SWAP1 PUSH3 0xA62 JUMP JUMPDEST DUP2 MLOAD DUP2 LT PUSH3 0x260 JUMPI PUSH3 0x25F PUSH3 0x9B7 JUMP JUMPDEST JUMPDEST PUSH1 0x20 ADD ADD MLOAD PUSH1 0xF8 SHR PUSH1 0xF8 SHL PUSH31 0xFFFFFFFFFFFFFFFFFFFFFFFFFFFFFFFFFFFFFFFFFFFFFFFFFFFFFFFFFFFFFF NOT AND EQ JUMPDEST DUP1 PUSH3 0x2EE JUMPI POP PUSH1 0xD PUSH1 0xF8 SHL DUP4 PUSH1 0x1 DUP4 PUSH3 0x2AB SWAP2 SWAP1 PUSH3 0xA62 JUMP JUMPDEST DUP2 MLOAD DUP2 LT PUSH3 0x2BF JUMPI PUSH3 0x2BE PUSH3 0x9B7 JUMP JUMPDEST JUMPDEST PUSH1 0x20 ADD ADD MLOAD PUSH1 0xF8 SHR PUSH1 0xF8 SHL PUSH31 0xFFFFFFFFFFFFFFFFFFFFFFFFFFFFFFFFFFFFFFFFFFFFFFFFFFFFFFFFFFFFFF NOT AND EQ JUMPDEST JUMPDEST ISZERO PUSH3 0x30B JUMPI DUP1 DUP1 PUSH3 0x302 SWAP1 PUSH3 0xA9D JUMP JUMPDEST SWAP2 POP POP PUSH3 0x1CE JUMP JUMPDEST PUSH1 0x0 DUP3 DUP3 PUSH3 0x31B SWAP2 SWAP1 PUSH3 0xA62 JUMP JUMPDEST PUSH8 0xFFFFFFFFFFFFFFFF DUP2 GT ISZERO PUSH3 0x337 JUMPI PUSH3 0x336 PUSH3 0x441 JUMP JUMPDEST JUMPDEST PUSH1 0x40 MLOAD SWAP1 DUP1 DUP3 MSTORE DUP1 PUSH1 0x1F ADD PUSH1 0x1F NOT AND PUSH1 0x20 ADD DUP3 ADD PUSH1 0x40 MSTORE DUP1 ISZERO PUSH3 0x36A JUMPI DUP2 PUSH1 0x20 ADD PUSH1 0x1 DUP3 MUL DUP1 CALLDATASIZE DUP4 CALLDATACOPY DUP1 DUP3 ADD SWAP2 POP POP SWAP1 POP JUMPDEST POP SWAP1 POP PUSH1 0x0 DUP4 SWAP1 POP JUMPDEST DUP3 DUP2 LT ISZERO PUSH3 0x405 JUMPI DUP5 DUP2 DUP2 MLOAD DUP2 LT PUSH3 0x392 JUMPI PUSH3 0x391 PUSH3 0x9B7 JUMP JUMPDEST JUMPDEST PUSH1 0x20 ADD ADD MLOAD PUSH1 0xF8 SHR PUSH1 0xF8 SHL DUP3 DUP6 DUP4 PUSH3 0x3AC SWAP2 SWAP1 PUSH3 0xA62 JUMP JUMPDEST DUP2 MLOAD DUP2 LT PUSH3 0x3C0 JUMPI PUSH3 0x3BF PUSH3 0x9B7 JUMP JUMPDEST JUMPDEST PUSH1 0x20 ADD ADD SWAP1 PUSH31 0xFFFFFFFFFFFFFFFFFFFFFFFFFFFFFFFFFFFFFFFFFFFFFFFFFFFFFFFFFFFFFF NOT AND SWAP1 DUP2 PUSH1 0x0 BYTE SWAP1 MSTORE8 POP DUP1 DUP1 PUSH3 0x3FC SWAP1 PUSH3 0xA15 JUMP JUMPDEST SWAP2 POP POP PUSH3 0x373 JUMP JUMPDEST POP DUP1 SWAP5 POP POP POP POP POP SWAP2 SWAP1 POP JUMP JUMPDEST PUSH1 0x0 PUSH1 0x40 MLOAD SWAP1 POP SWAP1 JUMP JUMPDEST PUSH1 0x0 DUP1 REVERT JUMPDEST PUSH1 0x0 DUP1 REVERT JUMPDEST PUSH1 0x0 DUP1 REVERT JUMPDEST PUSH1 0x0 DUP1 REVERT JUMPDEST PUSH1 0x0 PUSH1 0x1F NOT PUSH1 0x1F DUP4 ADD AND SWAP1 POP SWAP2 SWAP1 POP JUMP JUMPDEST PUSH32 0x4E487B7100000000000000000000000000000000000000000000000000000000 PUSH1 0x0 MSTORE PUSH1 0x41 PUSH1 0x4 MSTORE PUSH1 0x24 PUSH1 0x0 REVERT JUMPDEST PUSH3 0x47B DUP3 PUSH3 0x430 JUMP JUMPDEST DUP2 ADD DUP2 DUP2 LT PUSH8 0xFFFFFFFFFFFFFFFF DUP3 GT OR ISZERO PUSH3 0x49D JUMPI PUSH3 0x49C PUSH3 0x441 JUMP JUMPDEST JUMPDEST DUP1 PUSH1 0x40 MSTORE POP POP POP JUMP JUMPDEST PUSH1 0x0 PUSH3 0x4B2 PUSH3 0x412 JUMP JUMPDEST SWAP1 POP PUSH3 0x4C0 DUP3 DUP3 PUSH3 0x470 JUMP JUMPDEST SWAP2 SWAP1 POP JUMP JUMPDEST PUSH1 0x0 PUSH8 0xFFFFFFFFFFFFFFFF DUP3 GT ISZERO PUSH3 0x4E3 JUMPI PUSH3 0x4E2 PUSH3 0x441 JUMP JUMPDEST JUMPDEST PUSH3 0x4EE DUP3 PUSH3 0x430 JUMP JUMPDEST SWAP1 POP PUSH1 0x20 DUP2 ADD SWAP1 POP SWAP2 SWAP1 POP JUMP JUMPDEST PUSH1 0x0 JUMPDEST DUP4 DUP2 LT ISZERO PUSH3 0x51B JUMPI DUP1 DUP3 ADD MLOAD DUP2 DUP5 ADD MSTORE PUSH1 0x20 DUP2 ADD SWAP1 POP PUSH3 0x4FE JUMP JUMPDEST PUSH1 0x0 DUP5 DUP5 ADD MSTORE POP POP POP POP JUMP JUMPDEST PUSH1 0x0 PUSH3 0x53E PUSH3 0x538 DUP5 PUSH3 0x4C5 JUMP JUMPDEST PUSH3 0x4A6 JUMP JUMPDEST SWAP1 POP DUP3 DUP2 MSTORE PUSH1 0x20 DUP2 ADD DUP5 DUP5 DUP5 ADD GT ISZERO PUSH3 0x55D JUMPI PUSH3 0x55C PUSH3 0x42B JUMP JUMPDEST JUMPDEST PUSH3 0x56A DUP5 DUP3 DUP6 PUSH3 0x4FB JUMP JUMPDEST POP SWAP4 SWAP3 POP POP POP JUMP JUMPDEST PUSH1 0x0 DUP3 PUSH1 0x1F DUP4 ADD SLT PUSH3 0x58A JUMPI PUSH3 0x589 PUSH3 0x426 JUMP JUMPDEST JUMPDEST DUP2 MLOAD PUSH3 0x59C DUP5 DUP3 PUSH1 0x20 DUP7 ADD PUSH3 0x527 JUMP JUMPDEST SWAP2 POP POP SWAP3 SWAP2 POP POP JUMP JUMPDEST PUSH1 0x0 DUP1 PUSH1 0x40 DUP4 DUP6 SUB SLT ISZERO PUSH3 0x5BF JUMPI PUSH3 0x5BE PUSH3 0x41C JUMP JUMPDEST JUMPDEST PUSH1 0x0 DUP4 ADD MLOAD PUSH8 0xFFFFFFFFFFFFFFFF DUP2 GT ISZERO PUSH3 0x5E0 JUMPI PUSH3 0x5DF PUSH3 0x421 JUMP JUMPDEST JUMPDEST PUSH3 0x5EE DUP6 DUP3 DUP7 ADD PUSH3 0x572 JUMP JUMPDEST SWAP3 POP POP PUSH1 0x20 DUP4 ADD MLOAD PUSH8 0xFFFFFFFFFFFFFFFF DUP2 GT ISZERO PUSH3 0x612 JUMPI PUSH3 0x611 PUSH3 0x421 JUMP JUMPDEST JUMPDEST PUSH3 0x620 DUP6 DUP3 DUP7 ADD PUSH3 0x572 JUMP JUMPDEST SWAP2 POP POP SWAP3 POP SWAP3 SWAP1 POP JUMP JUMPDEST PUSH1 0x0 DUP2 MLOAD SWAP1 POP SWAP2 SWAP1 POP JUMP JUMPDEST PUSH32 0x4E487B7100000000000000000000000000000000000000000000000000000000 PUSH1 0x0 MSTORE PUSH1 0x22 PUSH1 0x4 MSTORE PUSH1 0x24 PUSH1 0x0 REVERT JUMPDEST PUSH1 0x0 PUSH1 0x2 DUP3 DIV SWAP1 POP PUSH1 0x1 DUP3 AND DUP1 PUSH3 0x67D JUMPI PUSH1 0x7F DUP3 AND SWAP2 POP JUMPDEST PUSH1 0x20 DUP3 LT DUP2 SUB PUSH3 0x693 JUMPI PUSH3 0x692 PUSH3 0x635 JUMP JUMPDEST JUMPDEST POP SWAP2 SWAP1 POP JUMP JUMPDEST PUSH1 0x0 DUP2 SWAP1 POP DUP2 PUSH1 0x0 MSTORE PUSH1 0x20 PUSH1 0x0 KECCAK256 SWAP1 POP SWAP2 SWAP1 POP JUMP JUMPDEST PUSH1 0x0 PUSH1 0x20 PUSH1 0x1F DUP4 ADD DIV SWAP1 POP SWAP2 SWAP1 POP JUMP JUMPDEST PUSH1 0x0 DUP3 DUP3 SHL SWAP1 POP SWAP3 SWAP2 POP POP JUMP JUMPDEST PUSH1 0x0 PUSH1 0x8 DUP4 MUL PUSH3 0x6FD PUSH32 0xFFFFFFFFFFFFFFFFFFFFFFFFFFFFFFFFFFFFFFFFFFFFFFFFFFFFFFFFFFFFFFFF DUP3 PUSH3 0x6BE JUMP JUMPDEST PUSH3 0x709 DUP7 DUP4 PUSH3 0x6BE JUMP JUMPDEST SWAP6 POP DUP1 NOT DUP5 AND SWAP4 POP DUP1 DUP7 AND DUP5 OR SWAP3 POP POP POP SWAP4 SWAP3 POP POP POP JUMP JUMPDEST PUSH1 0x0 DUP2 SWAP1 POP SWAP2 SWAP1 POP JUMP JUMPDEST PUSH1 0x0 DUP2 SWAP1 POP SWAP2 SWAP1 POP JUMP JUMPDEST PUSH1 0x0 PUSH3 0x756 PUSH3 0x750 PUSH3 0x74A DUP5 PUSH3 0x721 JUMP JUMPDEST PUSH3 0x72B JUMP JUMPDEST PUSH3 0x721 JUMP JUMPDEST SWAP1 POP SWAP2 SWAP1 POP JUMP JUMPDEST PUSH1 0x0 DUP2 SWAP1 POP SWAP2 SWAP1 POP JUMP JUMPDEST PUSH3 0x772 DUP4 PUSH3 0x735 JUMP JUMPDEST PUSH3 0x78A PUSH3 0x781 DUP3 PUSH3 0x75D JUMP JUMPDEST DUP5 DUP5 SLOAD PUSH3 0x6CB JUMP JUMPDEST DUP3 SSTORE POP POP POP POP JUMP JUMPDEST PUSH1 0x0 SWAP1 JUMP JUMPDEST PUSH3 0x7A1 PUSH3 0x792 JUMP JUMPDEST PUSH3 0x7AE DUP2 DUP5 DUP5 PUSH3 0x767 JUMP JUMPDEST POP POP POP JUMP JUMPDEST JUMPDEST DUP2 DUP2 LT ISZERO PUSH3 0x7D6 JUMPI PUSH3 0x7CA PUSH1 0x0 DUP3 PUSH3 0x797 JUMP JUMPDEST PUSH1 0x1 DUP2 ADD SWAP1 POP PUSH3 0x7B4 JUMP JUMPDEST POP POP JUMP JUMPDEST PUSH1 0x1F DUP3 GT ISZERO PUSH3 0x825 JUMPI PUSH3 0x7EF DUP2 PUSH3 0x699 JUMP JUMPDEST PUSH3 0x7FA DUP5 PUSH3 0x6AE JUMP JUMPDEST DUP2 ADD PUSH1 0x20 DUP6 LT ISZERO PUSH3 0x80A JUMPI DUP2 SWAP1 POP JUMPDEST PUSH3 0x822 PUSH3 0x819 DUP6 PUSH3 0x6AE JUMP JUMPDEST DUP4 ADD DUP3 PUSH3 0x7B3 JUMP JUMPDEST POP POP JUMPDEST POP POP POP JUMP JUMPDEST PUSH1 0x0 DUP3 DUP3 SHR SWAP1 POP SWAP3 SWAP2 POP POP JUMP JUMPDEST PUSH1 0x0 PUSH3 0x84A PUSH1 0x0 NOT DUP5 PUSH1 0x8 MUL PUSH3 0x82A JUMP JUMPDEST NOT DUP1 DUP4 AND SWAP2 POP POP SWAP3 SWAP2 POP POP JUMP JUMPDEST PUSH1 0x0 PUSH3 0x865 DUP4 DUP4 PUSH3 0x837 JUMP JUMPDEST SWAP2 POP DUP3 PUSH1 0x2 MUL DUP3 OR SWAP1 POP SWAP3 SWAP2 POP POP JUMP JUMPDEST PUSH3 0x880 DUP3 PUSH3 0x62A JUMP JUMPDEST PUSH8 0xFFFFFFFFFFFFFFFF DUP2 GT ISZERO PUSH3 0x89C JUMPI PUSH3 0x89B PUSH3 0x441 JUMP JUMPDEST JUMPDEST PUSH3 0x8A8 DUP3 SLOAD PUSH3 0x664 JUMP JUMPDEST PUSH3 0x8B5 DUP3 DUP3 DUP6 PUSH3 0x7DA JUMP JUMPDEST PUSH1 0x0 PUSH1 0x20 SWAP1 POP PUSH1 0x1F DUP4 GT PUSH1 0x1 DUP2 EQ PUSH3 0x8ED JUMPI PUSH1 0x0 DUP5 ISZERO PUSH3 0x8D8 JUMPI DUP3 DUP8 ADD MLOAD SWAP1 POP JUMPDEST PUSH3 0x8E4 DUP6 DUP3 PUSH3 0x857 JUMP JUMPDEST DUP7 SSTORE POP PUSH3 0x954 JUMP JUMPDEST PUSH1 0x1F NOT DUP5 AND PUSH3 0x8FD DUP7 PUSH3 0x699 JUMP JUMPDEST PUSH1 0x0 JUMPDEST DUP3 DUP2 LT ISZERO PUSH3 0x927 JUMPI DUP5 DUP10 ADD MLOAD DUP3 SSTORE PUSH1 0x1 DUP3 ADD SWAP2 POP PUSH1 0x20 DUP6 ADD SWAP5 POP PUSH1 0x20 DUP2 ADD SWAP1 POP PUSH3 0x900 JUMP JUMPDEST DUP7 DUP4 LT ISZERO PUSH3 0x947 JUMPI DUP5 DUP10 ADD MLOAD PUSH3 0x943 PUSH1 0x1F DUP10 AND DUP3 PUSH3 0x837 JUMP JUMPDEST DUP4 SSTORE POP JUMPDEST PUSH1 0x1 PUSH1 0x2 DUP9 MUL ADD DUP9 SSTORE POP POP POP JUMPDEST POP POP POP POP POP POP JUMP JUMPDEST PUSH1 0x0 DUP2 SWAP1 POP SWAP3 SWAP2 POP POP JUMP JUMPDEST PUSH1 0x0 PUSH3 0x974 DUP3 PUSH3 0x62A JUMP JUMPDEST PUSH3 0x980 DUP2 DUP6 PUSH3 0x95C JUMP JUMPDEST SWAP4 POP PUSH3 0x992 DUP2 DUP6 PUSH1 0x20 DUP7 ADD PUSH3 0x4FB JUMP JUMPDEST DUP1 DUP5 ADD SWAP2 POP POP SWAP3 SWAP2 POP POP JUMP JUMPDEST PUSH1 0x0 PUSH3 0x9AC DUP3 DUP5 PUSH3 0x967 JUMP JUMPDEST SWAP2 POP DUP2 SWAP1 POP SWAP3 SWAP2 POP POP JUMP JUMPDEST PUSH32 0x4E487B7100000000000000000000000000000000000000000000000000000000 PUSH1 0x0 MSTORE PUSH1 0x32 PUSH1 0x4 MSTORE PUSH1 0x24 PUSH1 0x0 REVERT JUMPDEST PUSH32 0x4E487B7100000000000000000000000000000000000000000000000000000000 PUSH1 0x0 MSTORE PUSH1 0x11 PUSH1 0x4 MSTORE PUSH1 0x24 PUSH1 0x0 REVERT JUMPDEST PUSH1 0x0 PUSH3 0xA22 DUP3 PUSH3 0x721 JUMP JUMPDEST SWAP2 POP PUSH32 0xFFFFFFFFFFFFFFFFFFFFFFFFFFFFFFFFFFFFFFFFFFFFFFFFFFFFFFFFFFFFFFFF DUP3 SUB PUSH3 0xA57 JUMPI PUSH3 0xA56 PUSH3 0x9E6 JUMP JUMPDEST JUMPDEST PUSH1 0x1 DUP3 ADD SWAP1 POP SWAP2 SWAP1 POP JUMP JUMPDEST PUSH1 0x0 PUSH3 0xA6F DUP3 PUSH3 0x721 JUMP JUMPDEST SWAP2 POP PUSH3 0xA7C DUP4 PUSH3 0x721 JUMP JUMPDEST SWAP3 POP DUP3 DUP3 SUB SWAP1 POP DUP2 DUP2 GT ISZERO PUSH3 0xA97 JUMPI PUSH3 0xA96 PUSH3 0x9E6 JUMP JUMPDEST JUMPDEST SWAP3 SWAP2 POP POP JUMP JUMPDEST PUSH1 0x0 PUSH3 0xAAA DUP3 PUSH3 0x721 JUMP JUMPDEST SWAP2 POP PUSH1 0x0 DUP3 SUB PUSH3 0xAC0 JUMPI PUSH3 0xABF PUSH3 0x9E6 JUMP JUMPDEST JUMPDEST PUSH1 0x1 DUP3 SUB SWAP1 POP SWAP2 SWAP1 POP JUMP JUMPDEST PUSH2 0xF0E DUP1 PUSH3 0xADB PUSH1 0x0 CODECOPY PUSH1 0x0 RETURN INVALID PUSH1 0x80 PUSH1 0x40 MSTORE CALLVALUE DUP1 ISZERO PUSH2 0x10 JUMPI PUSH1 0x0 DUP1 REVERT JUMPDEST POP PUSH1 0x4 CALLDATASIZE LT PUSH2 0x4C JUMPI PUSH1 0x0 CALLDATALOAD PUSH1 0xE0 SHR DUP1 PUSH4 0x147EC12D EQ PUSH2 0x51 JUMPI DUP1 PUSH4 0x56049A86 EQ PUSH2 0x6F JUMPI DUP1 PUSH4 0x64D98F6E EQ PUSH2 0x8D JUMPI DUP1 PUSH4 0x6ED9AB7A EQ PUSH2 0xAB JUMPI JUMPDEST PUSH1 0x0 DUP1 REVERT JUMPDEST PUSH2 0x59 PUSH2 0xC7 JUMP JUMPDEST PUSH1 0x40 MLOAD PUSH2 0x66 SWAP2 SWAP1 PUSH2 0x746 JUMP JUMPDEST PUSH1 0x40 MLOAD DUP1 SWAP2 SUB SWAP1 RETURN JUMPDEST PUSH2 0x77 PUSH2 0x1A8 JUMP JUMPDEST PUSH1 0x40 MLOAD PUSH2 0x84 SWAP2 SWAP1 PUSH2 0x746 JUMP JUMPDEST PUSH1 0x40 MLOAD DUP1 SWAP2 SUB SWAP1 RETURN JUMPDEST PUSH2 0x95 PUSH2 0x236 JUMP JUMPDEST PUSH1 0x40 MLOAD PUSH2 0xA2 SWAP2 SWAP1 PUSH2 0x783 JUMP JUMPDEST PUSH1 0x40 MLOAD DUP1 SWAP2 SUB SWAP1 RETURN JUMPDEST PUSH2 0xC5 PUSH1 0x4 DUP1 CALLDATASIZE SUB DUP2 ADD SWAP1 PUSH2 0xC0 SWAP2 SWAP1 PUSH2 0x8E7 JUMP JUMPDEST PUSH2 0x249 JUMP JUMPDEST STOP JUMPDEST PUSH1 0x60 PUSH1 0x2 PUSH1 0x0 SWAP1 SLOAD SWAP1 PUSH2 0x100 EXP SWAP1 DIV PUSH1 0xFF AND PUSH2 0x118 JUMPI PUSH1 0x40 MLOAD PUSH32 0x8C379A000000000000000000000000000000000000000000000000000000000 DUP2 MSTORE PUSH1 0x4 ADD PUSH2 0x10F SWAP1 PUSH2 0x9A2 JUMP JUMPDEST PUSH1 0x40 MLOAD DUP1 SWAP2 SUB SWAP1 REVERT JUMPDEST PUSH1 0x3 DUP1 SLOAD PUSH2 0x125 SWAP1 PUSH2 0x9F1 JUMP JUMPDEST DUP1 PUSH1 0x1F ADD PUSH1 0x20 DUP1 SWAP2 DIV MUL PUSH1 0x20 ADD PUSH1 0x40 MLOAD SWAP1 DUP2 ADD PUSH1 0x40 MSTORE DUP1 SWAP3 SWAP2 SWAP1 DUP2 DUP2 MSTORE PUSH1 0x20 ADD DUP3 DUP1 SLOAD PUSH2 0x151 SWAP1 PUSH2 0x9F1 JUMP JUMPDEST DUP1 ISZERO PUSH2 0x19E JUMPI DUP1 PUSH1 0x1F LT PUSH2 0x173 JUMPI PUSH2 0x100 DUP1 DUP4 SLOAD DIV MUL DUP4 MSTORE SWAP2 PUSH1 0x20 ADD SWAP2 PUSH2 0x19E JUMP JUMPDEST DUP3 ADD SWAP2 SWAP1 PUSH1 0x0 MSTORE PUSH1 0x20 PUSH1 0x0 KECCAK256 SWAP1 JUMPDEST DUP2 SLOAD DUP2 MSTORE SWAP1 PUSH1 0x1 ADD SWAP1 PUSH1 0x20 ADD DUP1 DUP4 GT PUSH2 0x181 JUMPI DUP3 SWAP1 SUB PUSH1 0x1F AND DUP3 ADD SWAP2 JUMPDEST POP POP POP POP POP SWAP1 POP SWAP1 JUMP JUMPDEST PUSH1 0x0 DUP1 SLOAD PUSH2 0x1B5 SWAP1 PUSH2 0x9F1 JUMP JUMPDEST DUP1 PUSH1 0x1F ADD PUSH1 0x20 DUP1 SWAP2 DIV MUL PUSH1 0x20 ADD PUSH1 0x40 MLOAD SWAP1 DUP2 ADD PUSH1 0x40 MSTORE DUP1 SWAP3 SWAP2 SWAP1 DUP2 DUP2 MSTORE PUSH1 0x20 ADD DUP3 DUP1 SLOAD PUSH2 0x1E1 SWAP1 PUSH2 0x9F1 JUMP JUMPDEST DUP1 ISZERO PUSH2 0x22E JUMPI DUP1 PUSH1 0x1F LT PUSH2 0x203 JUMPI PUSH2 0x100 DUP1 DUP4 SLOAD DIV MUL DUP4 MSTORE SWAP2 PUSH1 0x20 ADD SWAP2 PUSH2 0x22E JUMP JUMPDEST DUP3 ADD SWAP2 SWAP1 PUSH1 0x0 MSTORE PUSH1 0x20 PUSH1 0x0 KECCAK256 SWAP1 JUMPDEST DUP2 SLOAD DUP2 MSTORE SWAP1 PUSH1 0x1 ADD SWAP1 PUSH1 0x20 ADD DUP1 DUP4 GT PUSH2 0x211 JUMPI DUP3 SWAP1 SUB PUSH1 0x1F AND DUP3 ADD SWAP2 JUMPDEST POP POP POP POP POP DUP2 JUMP JUMPDEST PUSH1 0x2 PUSH1 0x0 SWAP1 SLOAD SWAP1 PUSH2 0x100 EXP SWAP1 DIV PUSH1 0xFF AND DUP2 JUMP JUMPDEST PUSH1 0x2 PUSH1 0x0 SWAP1 SLOAD SWAP1 PUSH2 0x100 EXP SWAP1 DIV PUSH1 0xFF AND ISZERO PUSH2 0x299 JUMPI PUSH1 0x40 MLOAD PUSH32 0x8C379A000000000000000000000000000000000000000000000000000000000 DUP2 MSTORE PUSH1 0x4 ADD PUSH2 0x290 SWAP1 PUSH2 0xA6E JUMP JUMPDEST PUSH1 0x40 MLOAD DUP1 SWAP2 SUB SWAP1 REVERT JUMPDEST PUSH1 0x1 SLOAD PUSH2 0x2A5 DUP3 PUSH2 0x387 JUMP JUMPDEST PUSH1 0x40 MLOAD PUSH1 0x20 ADD PUSH2 0x2B5 SWAP2 SWAP1 PUSH2 0xACA JUMP JUMPDEST PUSH1 0x40 MLOAD PUSH1 0x20 DUP2 DUP4 SUB SUB DUP2 MSTORE SWAP1 PUSH1 0x40 MSTORE DUP1 MLOAD SWAP1 PUSH1 0x20 ADD KECCAK256 EQ PUSH2 0x30B JUMPI PUSH1 0x40 MLOAD PUSH32 0x8C379A000000000000000000000000000000000000000000000000000000000 DUP2 MSTORE PUSH1 0x4 ADD PUSH2 0x302 SWAP1 PUSH2 0xB2D JUMP JUMPDEST PUSH1 0x40 MLOAD DUP1 SWAP2 SUB SWAP1 REVERT JUMPDEST DUP1 PUSH1 0x3 SWAP1 DUP2 PUSH2 0x31A SWAP2 SWAP1 PUSH2 0xD03 JUMP JUMPDEST POP PUSH1 0x1 PUSH1 0x2 PUSH1 0x0 PUSH2 0x100 EXP DUP2 SLOAD DUP2 PUSH1 0xFF MUL NOT AND SWAP1 DUP4 ISZERO ISZERO MUL OR SWAP1 SSTORE POP CALLER PUSH20 0xFFFFFFFFFFFFFFFFFFFFFFFFFFFFFFFFFFFFFFFF AND PUSH32 0x1C94ACBB9DBA8C0A3350953B11C8DCFAC05259D7885FF4AB24D5CCC1CD7D141E DUP3 PUSH1 0x40 MLOAD PUSH2 0x37C SWAP2 SWAP1 PUSH2 0x746 JUMP JUMPDEST PUSH1 0x40 MLOAD DUP1 SWAP2 SUB SWAP1 LOG2 POP JUMP JUMPDEST PUSH1 0x60 PUSH1 0x0 DUP3 SWAP1 POP PUSH1 0x0 DUP1 DUP3 MLOAD SWAP1 POP JUMPDEST DUP1 DUP3 LT DUP1 ISZERO PUSH2 0x481 JUMPI POP PUSH1 0x20 PUSH1 0xF8 SHL DUP4 DUP4 DUP2 MLOAD DUP2 LT PUSH2 0x3B8 JUMPI PUSH2 0x3B7 PUSH2 0xDD5 JUMP JUMPDEST JUMPDEST PUSH1 0x20 ADD ADD MLOAD PUSH1 0xF8 SHR PUSH1 0xF8 SHL PUSH31 0xFFFFFFFFFFFFFFFFFFFFFFFFFFFFFFFFFFFFFFFFFFFFFFFFFFFFFFFFFFFFFF NOT AND EQ DUP1 PUSH2 0x433 JUMPI POP PUSH1 0xA PUSH1 0xF8 SHL DUP4 DUP4 DUP2 MLOAD DUP2 LT PUSH2 0x404 JUMPI PUSH2 0x403 PUSH2 0xDD5 JUMP JUMPDEST JUMPDEST PUSH1 0x20 ADD ADD MLOAD PUSH1 0xF8 SHR PUSH1 0xF8 SHL PUSH31 0xFFFFFFFFFFFFFFFFFFFFFFFFFFFFFFFFFFFFFFFFFFFFFFFFFFFFFFFFFFFFFF NOT AND EQ JUMPDEST DUP1 PUSH2 0x480 JUMPI POP PUSH1 0xD PUSH1 0xF8 SHL DUP4 DUP4 DUP2 MLOAD DUP2 LT PUSH2 0x451 JUMPI PUSH2 0x450 PUSH2 0xDD5 JUMP JUMPDEST JUMPDEST PUSH1 0x20 ADD ADD MLOAD PUSH1 0xF8 SHR PUSH1 0xF8 SHL PUSH31 0xFFFFFFFFFFFFFFFFFFFFFFFFFFFFFFFFFFFFFFFFFFFFFFFFFFFFFFFFFFFFFF NOT AND EQ JUMPDEST JUMPDEST ISZERO PUSH2 0x499 JUMPI DUP2 DUP1 PUSH2 0x491 SWAP1 PUSH2 0xE33 JUMP JUMPDEST SWAP3 POP POP PUSH2 0x396 JUMP JUMPDEST JUMPDEST DUP2 DUP2 GT DUP1 ISZERO PUSH2 0x5A9 JUMPI POP PUSH1 0x20 PUSH1 0xF8 SHL DUP4 PUSH1 0x1 DUP4 PUSH2 0x4B7 SWAP2 SWAP1 PUSH2 0xE7B JUMP JUMPDEST DUP2 MLOAD DUP2 LT PUSH2 0x4C8 JUMPI PUSH2 0x4C7 PUSH2 0xDD5 JUMP JUMPDEST JUMPDEST PUSH1 0x20 ADD ADD MLOAD PUSH1 0xF8 SHR PUSH1 0xF8 SHL PUSH31 0xFFFFFFFFFFFFFFFFFFFFFFFFFFFFFFFFFFFFFFFFFFFFFFFFFFFFFFFFFFFFFF NOT AND EQ DUP1 PUSH2 0x54F JUMPI POP PUSH1 0xA PUSH1 0xF8 SHL DUP4 PUSH1 0x1 DUP4 PUSH2 0x50F SWAP2 SWAP1 PUSH2 0xE7B JUMP JUMPDEST DUP2 MLOAD DUP2 LT PUSH2 0x520 JUMPI PUSH2 0x51F PUSH2 0xDD5 JUMP JUMPDEST JUMPDEST PUSH1 0x20 ADD ADD MLOAD PUSH1 0xF8 SHR PUSH1 0xF8 SHL PUSH31 0xFFFFFFFFFFFFFFFFFFFFFFFFFFFFFFFFFFFFFFFFFFFFFFFFFFFFFFFFFFFFFF NOT AND EQ JUMPDEST DUP1 PUSH2 0x5A8 JUMPI POP PUSH1 0xD PUSH1 0xF8 SHL DUP4 PUSH1 0x1 DUP4 PUSH2 0x568 SWAP2 SWAP1 PUSH2 0xE7B JUMP JUMPDEST DUP2 MLOAD DUP2 LT PUSH2 0x579 JUMPI PUSH2 0x578 PUSH2 0xDD5 JUMP JUMPDEST JUMPDEST PUSH1 0x20 ADD ADD MLOAD PUSH1 0xF8 SHR PUSH1 0xF8 SHL PUSH31 0xFFFFFFFFFFFFFFFFFFFFFFFFFFFFFFFFFFFFFFFFFFFFFFFFFFFFFFFFFFFFFF NOT AND EQ JUMPDEST JUMPDEST ISZERO PUSH2 0x5C1 JUMPI DUP1 DUP1 PUSH2 0x5B9 SWAP1 PUSH2 0xEAF JUMP JUMPDEST SWAP2 POP POP PUSH2 0x49A JUMP JUMPDEST PUSH1 0x0 DUP3 DUP3 PUSH2 0x5CF SWAP2 SWAP1 PUSH2 0xE7B JUMP JUMPDEST PUSH8 0xFFFFFFFFFFFFFFFF DUP2 GT ISZERO PUSH2 0x5E8 JUMPI PUSH2 0x5E7 PUSH2 0x7BC JUMP JUMPDEST JUMPDEST PUSH1 0x40 MLOAD SWAP1 DUP1 DUP3 MSTORE DUP1 PUSH1 0x1F ADD PUSH1 0x1F NOT AND PUSH1 0x20 ADD DUP3 ADD PUSH1 0x40 MSTORE DUP1 ISZERO PUSH2 0x61A JUMPI DUP2 PUSH1 0x20 ADD PUSH1 0x1 DUP3 MUL DUP1 CALLDATASIZE DUP4 CALLDATACOPY DUP1 DUP3 ADD SWAP2 POP POP SWAP1 POP JUMPDEST POP SWAP1 POP PUSH1 0x0 DUP4 SWAP1 POP JUMPDEST DUP3 DUP2 LT ISZERO PUSH2 0x6A9 JUMPI DUP5 DUP2 DUP2 MLOAD DUP2 LT PUSH2 0x63E JUMPI PUSH2 0x63D PUSH2 0xDD5 JUMP JUMPDEST JUMPDEST PUSH1 0x20 ADD ADD MLOAD PUSH1 0xF8 SHR PUSH1 0xF8 SHL DUP3 DUP6 DUP4 PUSH2 0x656 SWAP2 SWAP1 PUSH2 0xE7B JUMP JUMPDEST DUP2 MLOAD DUP2 LT PUSH2 0x667 JUMPI PUSH2 0x666 PUSH2 0xDD5 JUMP JUMPDEST JUMPDEST PUSH1 0x20 ADD ADD SWAP1 PUSH31 0xFFFFFFFFFFFFFFFFFFFFFFFFFFFFFFFFFFFFFFFFFFFFFFFFFFFFFFFFFFFFFF NOT AND SWAP1 DUP2 PUSH1 0x0 BYTE SWAP1 MSTORE8 POP DUP1 DUP1 PUSH2 0x6A1 SWAP1 PUSH2 0xE33 JUMP JUMPDEST SWAP2 POP POP PUSH2 0x623 JUMP JUMPDEST POP DUP1 SWAP5 POP POP POP POP POP SWAP2 SWAP1 POP JUMP JUMPDEST PUSH1 0x0 DUP2 MLOAD SWAP1 POP SWAP2 SWAP1 POP JUMP JUMPDEST PUSH1 0x0 DUP3 DUP3 MSTORE PUSH1 0x20 DUP3 ADD SWAP1 POP SWAP3 SWAP2 POP POP JUMP JUMPDEST PUSH1 0x0 JUMPDEST DUP4 DUP2 LT ISZERO PUSH2 0x6F0 JUMPI DUP1 DUP3 ADD MLOAD DUP2 DUP5 ADD MSTORE PUSH1 0x20 DUP2 ADD SWAP1 POP PUSH2 0x6D5 JUMP JUMPDEST PUSH1 0x0 DUP5 DUP5 ADD MSTORE POP POP POP POP JUMP JUMPDEST PUSH1 0x0 PUSH1 0x1F NOT PUSH1 0x1F DUP4 ADD AND SWAP1 POP SWAP2 SWAP1 POP JUMP JUMPDEST PUSH1 0x0 PUSH2 0x718 DUP3 PUSH2 0x6B6 JUMP JUMPDEST PUSH2 0x722 DUP2 DUP6 PUSH2 0x6C1 JUMP JUMPDEST SWAP4 POP PUSH2 0x732 DUP2 DUP6 PUSH1 0x20 DUP7 ADD PUSH2 0x6D2 JUMP JUMPDEST PUSH2 0x73B DUP2 PUSH2 0x6FC JUMP JUMPDEST DUP5 ADD SWAP2 POP POP SWAP3 SWAP2 POP POP JUMP JUMPDEST PUSH1 0x0 PUSH1 0x20 DUP3 ADD SWAP1 POP DUP2 DUP2 SUB PUSH1 0x0 DUP4 ADD MSTORE PUSH2 0x760 DUP2 DUP5 PUSH2 0x70D JUMP JUMPDEST SWAP1 POP SWAP3 SWAP2 POP POP JUMP JUMPDEST PUSH1 0x0 DUP2 ISZERO ISZERO SWAP1 POP SWAP2 SWAP1 POP JUMP JUMPDEST PUSH2 0x77D DUP2 PUSH2 0x768 JUMP JUMPDEST DUP3 MSTORE POP POP JUMP JUMPDEST PUSH1 0x0 PUSH1 0x20 DUP3 ADD SWAP1 POP PUSH2 0x798 PUSH1 0x0 DUP4 ADD DUP5 PUSH2 0x774 JUMP JUMPDEST SWAP3 SWAP2 POP POP JUMP JUMPDEST PUSH1 0x0 PUSH1 0x40 MLOAD SWAP1 POP SWAP1 JUMP JUMPDEST PUSH1 0x0 DUP1 REVERT JUMPDEST PUSH1 0x0 DUP1 REVERT JUMPDEST PUSH1 0x0 DUP1 REVERT JUMPDEST PUSH1 0x0 DUP1 REVERT JUMPDEST PUSH32 0x4E487B7100000000000000000000000000000000000000000000000000000000 PUSH1 0x0 MSTORE PUSH1 0x41 PUSH1 0x4 MSTORE PUSH1 0x24 PUSH1 0x0 REVERT JUMPDEST PUSH2 0x7F4 DUP3 PUSH2 0x6FC JUMP JUMPDEST DUP2 ADD DUP2 DUP2 LT PUSH8 0xFFFFFFFFFFFFFFFF DUP3 GT OR ISZERO PUSH2 0x813 JUMPI PUSH2 0x812 PUSH2 0x7BC JUMP JUMPDEST JUMPDEST DUP1 PUSH1 0x40 MSTORE POP POP POP JUMP JUMPDEST PUSH1 0x0 PUSH2 0x826 PUSH2 0x79E JUMP JUMPDEST SWAP1 POP PUSH2 0x832 DUP3 DUP3 PUSH2 0x7EB JUMP JUMPDEST SWAP2 SWAP1 POP JUMP JUMPDEST PUSH1 0x0 PUSH8 0xFFFFFFFFFFFFFFFF DUP3 GT ISZERO PUSH2 0x852 JUMPI PUSH2 0x851 PUSH2 0x7BC JUMP JUMPDEST JUMPDEST PUSH2 0x85B DUP3 PUSH2 0x6FC JUMP JUMPDEST SWAP1 POP PUSH1 0x20 DUP2 ADD SWAP1 POP SWAP2 SWAP1 POP JUMP JUMPDEST DUP3 DUP2 DUP4 CALLDATACOPY PUSH1 0x0 DUP4 DUP4 ADD MSTORE POP POP POP JUMP JUMPDEST PUSH1 0x0 PUSH2 0x88A PUSH2 0x885 DUP5 PUSH2 0x837 JUMP JUMPDEST PUSH2 0x81C JUMP JUMPDEST SWAP1 POP DUP3 DUP2 MSTORE PUSH1 0x20 DUP2 ADD DUP5 DUP5 DUP5 ADD GT ISZERO PUSH2 0x8A6 JUMPI PUSH2 0x8A5 PUSH2 0x7B7 JUMP JUMPDEST JUMPDEST PUSH2 0x8B1 DUP5 DUP3 DUP6 PUSH2 0x868 JUMP JUMPDEST POP SWAP4 SWAP3 POP POP POP JUMP JUMPDEST PUSH1 0x0 DUP3 PUSH1 0x1F DUP4 ADD SLT PUSH2 0x8CE JUMPI PUSH2 0x8CD PUSH2 0x7B2 JUMP JUMPDEST JUMPDEST DUP2 CALLDATALOAD PUSH2 0x8DE DUP5 DUP3 PUSH1 0x20 DUP7 ADD PUSH2 0x877 JUMP JUMPDEST SWAP2 POP POP SWAP3 SWAP2 POP POP JUMP JUMPDEST PUSH1 0x0 PUSH1 0x20 DUP3 DUP5 SUB SLT ISZERO PUSH2 0x8FD JUMPI PUSH2 0x8FC PUSH2 0x7A8 JUMP JUMPDEST JUMPDEST PUSH1 0x0 DUP3 ADD CALLDATALOAD PUSH8 0xFFFFFFFFFFFFFFFF DUP2 GT ISZERO PUSH2 0x91B JUMPI PUSH2 0x91A PUSH2 0x7AD JUMP JUMPDEST JUMPDEST PUSH2 0x927 DUP5 DUP3 DUP6 ADD PUSH2 0x8B9 JUMP JUMPDEST SWAP2 POP POP SWAP3 SWAP2 POP POP JUMP JUMPDEST PUSH32 0x41756E206E6F2073652068612072657375656C746F20656C206163657274696A PUSH1 0x0 DUP3 ADD MSTORE PUSH32 0x6F2E000000000000000000000000000000000000000000000000000000000000 PUSH1 0x20 DUP3 ADD MSTORE POP JUMP JUMPDEST PUSH1 0x0 PUSH2 0x98C PUSH1 0x22 DUP4 PUSH2 0x6C1 JUMP JUMPDEST SWAP2 POP PUSH2 0x997 DUP3 PUSH2 0x930 JUMP JUMPDEST PUSH1 0x40 DUP3 ADD SWAP1 POP SWAP2 SWAP1 POP JUMP JUMPDEST PUSH1 0x0 PUSH1 0x20 DUP3 ADD SWAP1 POP DUP2 DUP2 SUB PUSH1 0x0 DUP4 ADD MSTORE PUSH2 0x9BB DUP2 PUSH2 0x97F JUMP JUMPDEST SWAP1 POP SWAP2 SWAP1 POP JUMP JUMPDEST PUSH32 0x4E487B7100000000000000000000000000000000000000000000000000000000 PUSH1 0x0 MSTORE PUSH1 0x22 PUSH1 0x4 MSTORE PUSH1 0x24 PUSH1 0x0 REVERT JUMPDEST PUSH1 0x0 PUSH1 0x2 DUP3 DIV SWAP1 POP PUSH1 0x1 DUP3 AND DUP1 PUSH2 0xA09 JUMPI PUSH1 0x7F DUP3 AND SWAP2 POP JUMPDEST PUSH1 0x20 DUP3 LT DUP2 SUB PUSH2 0xA1C JUMPI PUSH2 0xA1B PUSH2 0x9C2 JUMP JUMPDEST JUMPDEST POP SWAP2 SWAP1 POP JUMP JUMPDEST PUSH32 0x456C206163657274696A6F207961206861207369646F2072657375656C746F2E PUSH1 0x0 DUP3 ADD MSTORE POP JUMP JUMPDEST PUSH1 0x0 PUSH2 0xA58 PUSH1 0x20 DUP4 PUSH2 0x6C1 JUMP JUMPDEST SWAP2 POP PUSH2 0xA63 DUP3 PUSH2 0xA22 JUMP JUMPDEST PUSH1 0x20 DUP3 ADD SWAP1 POP SWAP2 SWAP1 POP JUMP JUMPDEST PUSH1 0x0 PUSH1 0x20 DUP3 ADD SWAP1 POP DUP2 DUP2 SUB PUSH1 0x0 DUP4 ADD MSTORE PUSH2 0xA87 DUP2 PUSH2 0xA4B JUMP JUMPDEST SWAP1 POP SWAP2 SWAP1 POP JUMP JUMPDEST PUSH1 0x0 DUP2 SWAP1 POP SWAP3 SWAP2 POP POP JUMP JUMPDEST PUSH1 0x0 PUSH2 0xAA4 DUP3 PUSH2 0x6B6 JUMP JUMPDEST PUSH2 0xAAE DUP2 DUP6 PUSH2 0xA8E JUMP JUMPDEST SWAP4 POP PUSH2 0xABE DUP2 DUP6 PUSH1 0x20 DUP7 ADD PUSH2 0x6D2 JUMP JUMPDEST DUP1 DUP5 ADD SWAP2 POP POP SWAP3 SWAP2 POP POP JUMP JUMPDEST PUSH1 0x0 PUSH2 0xAD6 DUP3 DUP5 PUSH2 0xA99 JUMP JUMPDEST SWAP2 POP DUP2 SWAP1 POP SWAP3 SWAP2 POP POP JUMP JUMPDEST PUSH32 0x52657370756573746120696E636F7272656374612E0000000000000000000000 PUSH1 0x0 DUP3 ADD MSTORE POP JUMP JUMPDEST PUSH1 0x0 PUSH2 0xB17 PUSH1 0x15 DUP4 PUSH2 0x6C1 JUMP JUMPDEST SWAP2 POP PUSH2 0xB22 DUP3 PUSH2 0xAE1 JUMP JUMPDEST PUSH1 0x20 DUP3 ADD SWAP1 POP SWAP2 SWAP1 POP JUMP JUMPDEST PUSH1 0x0 PUSH1 0x20 DUP3 ADD SWAP1 POP DUP2 DUP2 SUB PUSH1 0x0 DUP4 ADD MSTORE PUSH2 0xB46 DUP2 PUSH2 0xB0A JUMP JUMPDEST SWAP1 POP SWAP2 SWAP1 POP JUMP JUMPDEST PUSH1 0x0 DUP2 SWAP1 POP DUP2 PUSH1 0x0 MSTORE PUSH1 0x20 PUSH1 0x0 KECCAK256 SWAP1 POP SWAP2 SWAP1 POP JUMP JUMPDEST PUSH1 0x0 PUSH1 0x20 PUSH1 0x1F DUP4 ADD DIV SWAP1 POP SWAP2 SWAP1 POP JUMP JUMPDEST PUSH1 0x0 DUP3 DUP3 SHL SWAP1 POP SWAP3 SWAP2 POP POP JUMP JUMPDEST PUSH1 0x0 PUSH1 0x8 DUP4 MUL PUSH2 0xBAF PUSH32 0xFFFFFFFFFFFFFFFFFFFFFFFFFFFFFFFFFFFFFFFFFFFFFFFFFFFFFFFFFFFFFFFF DUP3 PUSH2 0xB72 JUMP JUMPDEST PUSH2 0xBB9 DUP7 DUP4 PUSH2 0xB72 JUMP JUMPDEST SWAP6 POP DUP1 NOT DUP5 AND SWAP4 POP DUP1 DUP7 AND DUP5 OR SWAP3 POP POP POP SWAP4 SWAP3 POP POP POP JUMP JUMPDEST PUSH1 0x0 DUP2 SWAP1 POP SWAP2 SWAP1 POP JUMP JUMPDEST PUSH1 0x0 DUP2 SWAP1 POP SWAP2 SWAP1 POP JUMP JUMPDEST PUSH1 0x0 PUSH2 0xC00 PUSH2 0xBFB PUSH2 0xBF6 DUP5 PUSH2 0xBD1 JUMP JUMPDEST PUSH2 0xBDB JUMP JUMPDEST PUSH2 0xBD1 JUMP JUMPDEST SWAP1 POP SWAP2 SWAP1 POP JUMP JUMPDEST PUSH1 0x0 DUP2 SWAP1 POP SWAP2 SWAP1 POP JUMP JUMPDEST PUSH2 0xC1A DUP4 PUSH2 0xBE5 JUMP JUMPDEST PUSH2 0xC2E PUSH2 0xC26 DUP3 PUSH2 0xC07 JUMP JUMPDEST DUP5 DUP5 SLOAD PUSH2 0xB7F JUMP JUMPDEST DUP3 SSTORE POP POP POP POP JUMP JUMPDEST PUSH1 0x0 SWAP1 JUMP JUMPDEST PUSH2 0xC43 PUSH2 0xC36 JUMP JUMPDEST PUSH2 0xC4E DUP2 DUP5 DUP5 PUSH2 0xC11 JUMP JUMPDEST POP POP POP JUMP JUMPDEST JUMPDEST DUP2 DUP2 LT ISZERO PUSH2 0xC72 JUMPI PUSH2 0xC67 PUSH1 0x0 DUP3 PUSH2 0xC3B JUMP JUMPDEST PUSH1 0x1 DUP2 ADD SWAP1 POP PUSH2 0xC54 JUMP JUMPDEST POP POP JUMP JUMPDEST PUSH1 0x1F DUP3 GT ISZERO PUSH2 0xCB7 JUMPI PUSH2 0xC88 DUP2 PUSH2 0xB4D JUMP JUMPDEST PUSH2 0xC91 DUP5 PUSH2 0xB62 JUMP JUMPDEST DUP2 ADD PUSH1 0x20 DUP6 LT ISZERO PUSH2 0xCA0 JUMPI DUP2 SWAP1 POP JUMPDEST PUSH2 0xCB4 PUSH2 0xCAC DUP6 PUSH2 0xB62 JUMP JUMPDEST DUP4 ADD DUP3 PUSH2 0xC53 JUMP JUMPDEST POP POP JUMPDEST POP POP POP JUMP JUMPDEST PUSH1 0x0 DUP3 DUP3 SHR SWAP1 POP SWAP3 SWAP2 POP POP JUMP JUMPDEST PUSH1 0x0 PUSH2 0xCDA PUSH1 0x0 NOT DUP5 PUSH1 0x8 MUL PUSH2 0xCBC JUMP JUMPDEST NOT DUP1 DUP4 AND SWAP2 POP POP SWAP3 SWAP2 POP POP JUMP JUMPDEST PUSH1 0x0 PUSH2 0xCF3 DUP4 DUP4 PUSH2 0xCC9 JUMP JUMPDEST SWAP2 POP DUP3 PUSH1 0x2 MUL DUP3 OR SWAP1 POP SWAP3 SWAP2 POP POP JUMP JUMPDEST PUSH2 0xD0C DUP3 PUSH2 0x6B6 JUMP JUMPDEST PUSH8 0xFFFFFFFFFFFFFFFF DUP2 GT ISZERO PUSH2 0xD25 JUMPI PUSH2 0xD24 PUSH2 0x7BC JUMP JUMPDEST JUMPDEST PUSH2 0xD2F DUP3 SLOAD PUSH2 0x9F1 JUMP JUMPDEST PUSH2 0xD3A DUP3 DUP3 DUP6 PUSH2 0xC76 JUMP JUMPDEST PUSH1 0x0 PUSH1 0x20 SWAP1 POP PUSH1 0x1F DUP4 GT PUSH1 0x1 DUP2 EQ PUSH2 0xD6D JUMPI PUSH1 0x0 DUP5 ISZERO PUSH2 0xD5B JUMPI DUP3 DUP8 ADD MLOAD SWAP1 POP JUMPDEST PUSH2 0xD65 DUP6 DUP3 PUSH2 0xCE7 JUMP JUMPDEST DUP7 SSTORE POP PUSH2 0xDCD JUMP JUMPDEST PUSH1 0x1F NOT DUP5 AND PUSH2 0xD7B DUP7 PUSH2 0xB4D JUMP JUMPDEST PUSH1 0x0 JUMPDEST DUP3 DUP2 LT ISZERO PUSH2 0xDA3 JUMPI DUP5 DUP10 ADD MLOAD DUP3 SSTORE PUSH1 0x1 DUP3 ADD SWAP2 POP PUSH1 0x20 DUP6 ADD SWAP5 POP PUSH1 0x20 DUP2 ADD SWAP1 POP PUSH2 0xD7E JUMP JUMPDEST DUP7 DUP4 LT ISZERO PUSH2 0xDC0 JUMPI DUP5 DUP10 ADD MLOAD PUSH2 0xDBC PUSH1 0x1F DUP10 AND DUP3 PUSH2 0xCC9 JUMP JUMPDEST DUP4 SSTORE POP JUMPDEST PUSH1 0x1 PUSH1 0x2 DUP9 MUL ADD DUP9 SSTORE POP POP POP JUMPDEST POP POP POP POP POP POP JUMP JUMPDEST PUSH32 0x4E487B7100000000000000000000000000000000000000000000000000000000 PUSH1 0x0 MSTORE PUSH1 0x32 PUSH1 0x4 MSTORE PUSH1 0x24 PUSH1 0x0 REVERT JUMPDEST PUSH32 0x4E487B7100000000000000000000000000000000000000000000000000000000 PUSH1 0x0 MSTORE PUSH1 0x11 PUSH1 0x4 MSTORE PUSH1 0x24 PUSH1 0x0 REVERT JUMPDEST PUSH1 0x0 PUSH2 0xE3E DUP3 PUSH2 0xBD1 JUMP JUMPDEST SWAP2 POP PUSH32 0xFFFFFFFFFFFFFFFFFFFFFFFFFFFFFFFFFFFFFFFFFFFFFFFFFFFFFFFFFFFFFFFF DUP3 SUB PUSH2 0xE70 JUMPI PUSH2 0xE6F PUSH2 0xE04 JUMP JUMPDEST JUMPDEST PUSH1 0x1 DUP3 ADD SWAP1 POP SWAP2 SWAP1 POP JUMP JUMPDEST PUSH1 0x0 PUSH2 0xE86 DUP3 PUSH2 0xBD1 JUMP JUMPDEST SWAP2 POP PUSH2 0xE91 DUP4 PUSH2 0xBD1 JUMP JUMPDEST SWAP3 POP DUP3 DUP3 SUB SWAP1 POP DUP2 DUP2 GT ISZERO PUSH2 0xEA9 JUMPI PUSH2 0xEA8 PUSH2 0xE04 JUMP JUMPDEST JUMPDEST SWAP3 SWAP2 POP POP JUMP JUMPDEST PUSH1 0x0 PUSH2 0xEBA DUP3 PUSH2 0xBD1 JUMP JUMPDEST SWAP2 POP PUSH1 0x0 DUP3 SUB PUSH2 0xECD JUMPI PUSH2 0xECC PUSH2 0xE04 JUMP JUMPDEST JUMPDEST PUSH1 0x1 DUP3 SUB SWAP1 POP SWAP2 SWAP1 POP JUMP INVALID LOG2 PUSH5 0x6970667358 0x22 SLT KECCAK256 0xF8 0xD0 REVERT 0x2D PUSH9 0x3EEE7B33EAD3680975 CALLER PUSH2 0x6B43 0xAF SWAP14 0xED DUP9 0xB5 0x1F TIMESTAMP SMOD 0xBC CODESIZE 0xED PUSH19 0xD6C464736F6C63430008110033000000000000 "},"methodIdentifiers":{"getSecretWord()":"147ec12d","isSolved()":"64d98f6e","riddle()":"56049a86","solveRiddle(string)":"6ed9ab7a"}}}}}