{
  "_format": "hh-sol-artifact-1",
  "contractName": "RiddleContract",
  "sourceName": "contracts/RiddleContract.sol",
  "abi": [
    {
      "inputs": [
        {
          "internalType": "string",
          "name": "_riddle",
          "type": "string"
        },
        {
          "internalType": "string",
          "name": "_secretWord",
          "type": "string"
        }
      ],
      "stateMutability": "nonpayable",
      "type": "constructor"
    },
    {
      "anonymous": false,
      "inputs": [
        {
          "indexed": true,
          "internalType": "address",
          "name": "solver",
          "type": "address"
        },
        {
          "indexed": false,
          "internalType": "string",
          "name": "solution",
          "type": "string"
        }
      ],
      "name": "RiddleSolved",
      "type": "event"
    },
    {
      "inputs": [],
      "name": "getSecretWord",
      "outputs": [
        {
          "internalType": "string",
          "name": "",
          "type": "string"
        }
      ],
      "stateMutability": "view",
      "type": "function"
    },
    {
      "inputs": [],
      "name": "isSolved",
      "outputs": [
        {
          "internalType": "bool",
          "name": "",
          "type": "bool"
        }
      ],
      "stateMutability": "view",
      "type": "function"
    },
    {
      "inputs": [],
      "name": "riddle",
      "outputs": [
        {
          "internalType": "string",
          "name": "",
          "type": "string"
        }
      ],
      "stateMutability": "view",
      "type": "function"
    },
    {
      "inputs": [
        {
          "internalType": "string",
          "name": "_attempt",
          "type": "string"
        }
      ],
      "name": "solveRiddle",
      "outputs": [],
      "stateMutability": "nonpayable",
      "type": "function"
    }
  ],
  "bytecode": "0x60806040523480156200001157600080fd5b50604051620019e9380380620019e98339818101604052810190620000379190620005a5565b816000908162000048919062000875565b506200005a81620000ab60201b60201c565b6040516020016200006c91906200099e565b604051602081830303815290604052805190602001206001819055506000600260006101000a81548160ff021916908315150217905550505062000acb565b60606000829050600080825190505b8082108015620001b15750602060f81b838381518110620000e057620000df620009b7565b5b602001015160f81c60f81b7effffffffffffffffffffffffffffffffffffffffffffffffffffffffffffff191614806200015f5750600a60f81b83838151811062000130576200012f620009b7565b5b602001015160f81c60f81b7effffffffffffffffffffffffffffffffffffffffffffffffffffffffffffff1916145b80620001b05750600d60f81b838381518110620001815762000180620009b7565b5b602001015160f81c60f81b7effffffffffffffffffffffffffffffffffffffffffffffffffffffffffffff1916145b5b15620001cd578180620001c49062000a15565b925050620000ba565b5b8181118015620002ef5750602060f81b83600183620001ee919062000a62565b81518110620002025762000201620009b7565b5b602001015160f81c60f81b7effffffffffffffffffffffffffffffffffffffffffffffffffffffffffffff191614806200028f5750600a60f81b836001836200024c919062000a62565b8151811062000260576200025f620009b7565b5b602001015160f81c60f81b7effffffffffffffffffffffffffffffffffffffffffffffffffffffffffffff1916145b80620002ee5750600d60f81b83600183620002ab919062000a62565b81518110620002bf57620002be620009b7565b5b602001015160f81c60f81b7effffffffffffffffffffffffffffffffffffffffffffffffffffffffffffff1916145b5b156200030b578080620003029062000a9d565b915050620001ce565b600082826200031b919062000a62565b67ffffffffffffffff81111562000337576200033662000441565b5b6040519080825280601f01601f1916602001820160405280156200036a5781602001600182028036833780820191505090505b50905060008390505b828110156200040557848181518110620003925762000391620009b7565b5b602001015160f81c60f81b828583620003ac919062000a62565b81518110620003c057620003bf620009b7565b5b60200101907effffffffffffffffffffffffffffffffffffffffffffffffffffffffffffff1916908160001a9053508080620003fc9062000a15565b91505062000373565b5080945050505050919050565b6000604051905090565b600080fd5b600080fd5b600080fd5b600080fd5b6000601f19601f8301169050919050565b7f4e487b7100000000000000000000000000000000000000000000000000000000600052604160045260246000fd5b6200047b8262000430565b810181811067ffffffffffffffff821117156200049d576200049c62000441565b5b80604052505050565b6000620004b262000412565b9050620004c0828262000470565b919050565b600067ffffffffffffffff821115620004e357620004e262000441565b5b620004ee8262000430565b9050602081019050919050565b60005b838110156200051b578082015181840152602081019050620004fe565b60008484015250505050565b60006200053e6200053884620004c5565b620004a6565b9050828152602081018484840111156200055d576200055c6200042b565b5b6200056a848285620004fb565b509392505050565b600082601f8301126200058a576200058962000426565b5b81516200059c84826020860162000527565b91505092915050565b60008060408385031215620005bf57620005be6200041c565b5b600083015167ffffffffffffffff811115620005e057620005df62000421565b5b620005ee8582860162000572565b925050602083015167ffffffffffffffff81111562000612576200061162000421565b5b620006208582860162000572565b9150509250929050565b600081519050919050565b7f4e487b7100000000000000000000000000000000000000000000000000000000600052602260045260246000fd5b600060028204905060018216806200067d57607f821691505b60208210810362000693576200069262000635565b5b50919050565b60008190508160005260206000209050919050565b60006020601f8301049050919050565b600082821b905092915050565b600060088302620006fd7fffffffffffffffffffffffffffffffffffffffffffffffffffffffffffffffff82620006be565b620007098683620006be565b95508019841693508086168417925050509392505050565b6000819050919050565b6000819050919050565b600062000756620007506200074a8462000721565b6200072b565b62000721565b9050919050565b6000819050919050565b620007728362000735565b6200078a62000781826200075d565b848454620006cb565b825550505050565b600090565b620007a162000792565b620007ae81848462000767565b505050565b5b81811015620007d657620007ca60008262000797565b600181019050620007b4565b5050565b601f8211156200082557620007ef8162000699565b620007fa84620006ae565b810160208510156200080a578190505b620008226200081985620006ae565b830182620007b3565b50505b505050565b600082821c905092915050565b60006200084a600019846008026200082a565b1980831691505092915050565b600062000865838362000837565b9150826002028217905092915050565b62000880826200062a565b67ffffffffffffffff8111156200089c576200089b62000441565b5b620008a8825462000664565b620008b5828285620007da565b600060209050601f831160018114620008ed5760008415620008d8578287015190505b620008e4858262000857565b86555062000954565b601f198416620008fd8662000699565b60005b82811015620009275784890151825560018201915060208501945060208101905062000900565b8683101562000947578489015162000943601f89168262000837565b8355505b6001600288020188555050505b505050505050565b600081905092915050565b600062000974826200062a565b6200098081856200095c565b935062000992818560208601620004fb565b80840191505092915050565b6000620009ac828462000967565b915081905092915050565b7f4e487b7100000000000000000000000000000000000000000000000000000000600052603260045260246000fd5b7f4e487b7100000000000000000000000000000000000000000000000000000000600052601160045260246000fd5b600062000a228262000721565b91507fffffffffffffffffffffffffffffffffffffffffffffffffffffffffffffffff820362000a575762000a56620009e6565b5b600182019050919050565b600062000a6f8262000721565b915062000a7c8362000721565b925082820390508181111562000a975762000a96620009e6565b5b92915050565b600062000aaa8262000721565b91506000820362000ac05762000abf620009e6565b5b600182039050919050565b610f0e8062000adb6000396000f3fe608060405234801561001057600080fd5b506004361061004c5760003560e01c8063147ec12d1461005157806356049a861461006f57806364d98f6e1461008d5780636ed9ab7a146100ab575b600080fd5b6100596100c7565b6040516100669190610746565b60405180910390f35b6100776101a8565b6040516100849190610746565b60405180910390f35b610095610236565b6040516100a29190610783565b60405180910390f35b6100c560048036038101906100c091906108e7565b610249565b005b6060600260009054906101000a900460ff16610118576040517f08c379a000000000000000000000000000000000000000000000000000000000815260040161010f906109a2565b60405180910390fd5b60038054610125906109f1565b80601f0160208091040260200160405190810160405280929190818152602001828054610151906109f1565b801561019e5780601f106101735761010080835404028352916020019161019e565b820191906000526020600020905b81548152906001019060200180831161018157829003601f168201915b5050505050905090565b600080546101b5906109f1565b80601f01602080910402602001604051908101604052809291908181526020018280546101e1906109f1565b801561022e5780601f106102035761010080835404028352916020019161022e565b820191906000526020600020905b81548152906001019060200180831161021157829003601f168201915b505050505081565b600260009054906101000a900460ff1681565b600260009054906101000a900460ff1615610299576040517f08c379a000000000000000000000000000000000000000000000000000000000815260040161029090610a6e565b60405180910390fd5b6001546102a582610387565b6040516020016102b59190610aca565b604051602081830303815290604052805190602001201461030b576040517f08c379a000000000000000000000000000000000000000000000000000000000815260040161030290610b2d565b60405180910390fd5b806003908161031a9190610d03565b506001600260006101000a81548160ff0219169083151502179055503373ffffffffffffffffffffffffffffffffffffffff167f1c94acbb9dba8c0a3350953b11c8dcfac05259d7885ff4ab24d5ccc1cd7d141e8260405161037c9190610746565b60405180910390a250565b60606000829050600080825190505b80821080156104815750602060f81b8383815181106103b8576103b7610dd5565b5b602001015160f81c60f81b7effffffffffffffffffffffffffffffffffffffffffffffffffffffffffffff191614806104335750600a60f81b83838151811061040457610403610dd5565b5b602001015160f81c60f81b7effffffffffffffffffffffffffffffffffffffffffffffffffffffffffffff1916145b806104805750600d60f81b83838151811061045157610450610dd5565b5b602001015160f81c60f81b7effffffffffffffffffffffffffffffffffffffffffffffffffffffffffffff1916145b5b1561049957818061049190610e33565b925050610396565b5b81811180156105a95750602060f81b836001836104b79190610e7b565b815181106104c8576104c7610dd5565b5b602001015160f81c60f81b7effffffffffffffffffffffffffffffffffffffffffffffffffffffffffffff1916148061054f5750600a60f81b8360018361050f9190610e7b565b815181106105205761051f610dd5565b5b602001015160f81c60f81b7effffffffffffffffffffffffffffffffffffffffffffffffffffffffffffff1916145b806105a85750600d60f81b836001836105689190610e7b565b8151811061057957610578610dd5565b5b602001015160f81c60f81b7effffffffffffffffffffffffffffffffffffffffffffffffffffffffffffff1916145b5b156105c15780806105b990610eaf565b91505061049a565b600082826105cf9190610e7b565b67ffffffffffffffff8111156105e8576105e76107bc565b5b6040519080825280601f01601f19166020018201604052801561061a5781602001600182028036833780820191505090505b50905060008390505b828110156106a95784818151811061063e5761063d610dd5565b5b602001015160f81c60f81b8285836106569190610e7b565b8151811061066757610666610dd5565b5b60200101907effffffffffffffffffffffffffffffffffffffffffffffffffffffffffffff1916908160001a90535080806106a190610e33565b915050610623565b5080945050505050919050565b600081519050919050565b600082825260208201905092915050565b60005b838110156106f05780820151818401526020810190506106d5565b60008484015250505050565b6000601f19601f8301169050919050565b6000610718826106b6565b61072281856106c1565b93506107328185602086016106d2565b61073b816106fc565b840191505092915050565b60006020820190508181036000830152610760818461070d565b905092915050565b60008115159050919050565b61077d81610768565b82525050565b60006020820190506107986000830184610774565b92915050565b6000604051905090565b600080fd5b600080fd5b600080fd5b600080fd5b7f4e487b7100000000000000000000000000000000000000000000000000000000600052604160045260246000fd5b6107f4826106fc565b810181811067ffffffffffffffff82111715610813576108126107bc565b5b80604052505050565b600061082661079e565b905061083282826107eb565b919050565b600067ffffffffffffffff821115610852576108516107bc565b5b61085b826106fc565b9050602081019050919050565b82818337600083830152505050565b600061088a61088584610837565b61081c565b9050828152602081018484840111156108a6576108a56107b7565b5b6108b1848285610868565b509392505050565b600082601f8301126108ce576108cd6107b2565b5b81356108de848260208601610877565b91505092915050565b6000602082840312156108fd576108fc6107a8565b5b600082013567ffffffffffffffff81111561091b5761091a6107ad565b5b610927848285016108b9565b91505092915050565b7f41756e206e6f2073652068612072657375656c746f20656c206163657274696a60008201527f6f2e000000000000000000000000000000000000000000000000000000000000602082015250565b600061098c6022836106c1565b915061099782610930565b604082019050919050565b600060208201905081810360008301526109bb8161097f565b9050919050565b7f4e487b7100000000000000000000000000000000000000000000000000000000600052602260045260246000fd5b60006002820490506001821680610a0957607f821691505b602082108103610a1c57610a1b6109c2565b5b50919050565b7f456c206163657274696a6f207961206861207369646f2072657375656c746f2e600082015250565b6000610a586020836106c1565b9150610a6382610a22565b602082019050919050565b60006020820190508181036000830152610a8781610a4b565b9050919050565b600081905092915050565b6000610aa4826106b6565b610aae8185610a8e565b9350610abe8185602086016106d2565b80840191505092915050565b6000610ad68284610a99565b915081905092915050565b7f52657370756573746120696e636f7272656374612e0000000000000000000000600082015250565b6000610b176015836106c1565b9150610b2282610ae1565b602082019050919050565b60006020820190508181036000830152610b4681610b0a565b9050919050565b60008190508160005260206000209050919050565b60006020601f8301049050919050565b600082821b905092915050565b600060088302610baf7fffffffffffffffffffffffffffffffffffffffffffffffffffffffffffffffff82610b72565b610bb98683610b72565b95508019841693508086168417925050509392505050565b6000819050919050565b6000819050919050565b6000610c00610bfb610bf684610bd1565b610bdb565b610bd1565b9050919050565b6000819050919050565b610c1a83610be5565b610c2e610c2682610c07565b848454610b7f565b825550505050565b600090565b610c43610c36565b610c4e818484610c11565b505050565b5b81811015610c7257610c67600082610c3b565b600181019050610c54565b5050565b601f821115610cb757610c8881610b4d565b610c9184610b62565b81016020851015610ca0578190505b610cb4610cac85610b62565b830182610c53565b50505b505050565b600082821c905092915050565b6000610cda60001984600802610cbc565b1980831691505092915050565b6000610cf38383610cc9565b9150826002028217905092915050565b610d0c826106b6565b67ffffffffffffffff811115610d2557610d246107bc565b5b610d2f82546109f1565b610d3a828285610c76565b600060209050601f831160018114610d6d5760008415610d5b578287015190505b610d658582610ce7565b865550610dcd565b601f198416610d7b86610b4d565b60005b82811015610da357848901518255600182019150602085019450602081019050610d7e565b86831015610dc05784890151610dbc601f891682610cc9565b8355505b6001600288020188555050505b505050505050565b7f4e487b7100000000000000000000000000000000000000000000000000000000600052603260045260246000fd5b7f4e487b7100000000000000000000000000000000000000000000000000000000600052601160045260246000fd5b6000610e3e82610bd1565b91507fffffffffffffffffffffffffffffffffffffffffffffffffffffffffffffffff8203610e7057610e6f610e04565b5b600182019050919050565b6000610e8682610bd1565b9150610e9183610bd1565b9250828203905081811115610ea957610ea8610e04565b5b92915050565b6000610eba82610bd1565b915060008203610ecd57610ecc610e04565b5b60018203905091905056fea2646970667358221220f8d0fd2d683eee7b33ead368097533616b43af9ded88b51f4207bc38ed72d6c464736f6c63430008110033",
  "linkReferences": {},
  "deployedLinkReferences": {}
}